:100000000C9435000C9452000C9452000C94520045
:100010000C9452000C9452000C9452000C94520018
:100020000C9452000C9452000C9452000C94520008
:100030000C9452000C9452000C9452000C945200F8
:100040000C9452000C9452000C9452000C945200E8
:100050000C9452000C9452000C9452000C945200D8
:100060000C9452000C945200410311241FBECFEF98
:10007000D8E0DEBFCDBF21E0A0E0B1E001C01D921D
:10008000A930B207E1F710E0C5E3D0E004C0219742
:10009000FE010E944803C433D107C9F70E94D5026C
:1000A0000C944E030C940000FC0185EE97E09683BF
:1000B000858385E084838CE18383108211821282A0
:1000C00083E087830895FC0161834083089588B1AC
:1000D000806188B988B1806288B9E9EBF0E08081FD
:1000E0008E7F808380818D7F808389EF8093B800AD
:1000F00085E08093BC000895AC0184EE8093BC0041
:100100009091BC009923E4F780ED8093BB0084ECD0
:100110008093BC009091BC009923E4F71092BB003F
:1001200084EC8093BC009091BC009923E4F784EEAA
:100130008093BC009091BC009923E4F781ED8093FB
:10014000BB0084EC8093BC009091BC009923E4F741
:1001500020E030E02730310584F494EC9093BC002B
:100160009091BC009923E4F79091BB00FA01E20F53
:10017000F31F92832F5F3F4FEDCF84E88093BC0045
:100180008091BC008823E4F784E98093BC00089543
:1001900084EE8093BC008091BC008823E4F780ED5E
:1001A0008093BB0084EC8093BC008091BC008823CA
:1001B000E4F76093BB0084EC8093BC008091BC00AA
:1001C0008823E4F74093BB0084EC8093BC008091CB
:1001D000BC008823E4F784E98093BC000895962F3F
:1001E0009F7792959F70990F892F880F880F890F9D
:1001F0006F70860F08956623BCF4862F8F7060722F
:10020000262F30E0359527953595279535952795F7
:100210003595279535952795622F660F260F622F06
:10022000660F660F860F0895962F9F70607370E0BB
:1002300075956795759567957595679575956795A6
:10024000660F862F880F880F680F862F890F0895F5
:10025000862F82958F70880F982F990F990F890F8D
:100260006F70860F08950F931F93CF93DF93CDB7D1
:10027000DEB760970FB6F894DEBF0FBECDBF8C011E
:10028000CE0109960E945400C8010E947C00F8012A
:100290006281C8010E94EF008B87F8016381C80169
:1002A0000E94EF008A87F8016481C8010E94FB0068
:1002B0008987F8018581888B6681C8010E94EF00DB
:1002C0008C87F8016781C8010E94EF008D87F801D3
:1002D0006085C8010E94280190E08053984F9F8755
:1002E0008E8788E0FE013996DE01119601900D920D
:1002F0008A95E1F729813A814B815C816D817E810C
:100300008F81988560960FB6F894DEBF0FBECDBF83
:10031000DF91CF911F910F9108959DEC699F912DD1
:100320001124969596959695292F220F822F880F46
:10033000880F820F681B862F20E1929F800D112469
:1003400008950F931F93CF93DF93683100F54C33DB
:10035000F0F42C33E0F4022F142FEC010E948D01F5
:10036000482F62E0CE010E94C800612FCE010E949A
:100370008D01482F61E0CE010E94C800602FCE01A0
:100380000E948D01482F60E0CE010E94C800DF91DD
:10039000CF911F910F910895FC0111821082138259
:1003A0001282158214820895FC01158214828BB189
:1003B0008E7F8BB9FFE926E881E0F1502040804034
:1003C000E1F700C000000895FC019BB192609BB969
:1003D000329B09C09BB19D7F9BB9158214828BB162
:1003E0008E7F8BB9089587EA91E60197F1F700C0F7
:1003F0000000EECF83B190E08974927908950F9355
:100400001F93CF93DF93EC018BB180618BB92FE900
:1004100086E891E0215080409040E1F700C0000064
:100420008BB180648BB9319B13C00E94FA018C019F
:100430008BB18F7B8BB92FE986E891E0215080400A
:100440009040E1F700C000008BB181608BB907C01C
:1004500087EA91E60197F1F700C00000E4CF319BF5
:100460001AC00E94FA012BB12E7F2BB91983088381
:100470009B838A8381E090E09D838C838BB1816034
:100480008BB99FE926E881E0915020408040E1F758
:1004900000C0000007C087EA91E60197F1F700C0AD
:1004A0000000DDCFDF91CF911F910F9108958FEF65
:1004B0008AB91BB814B887B1887F87B908950F939C
:1004C0001F93CF93DF93CDB7DEB729970FB6F8947C
:1004D000DEBF0FBECDBF09831A832B833C834D83C0
:1004E0005E836F83788789878BB188608BB92FE9AA
:1004F00086E891E0215080409040E1F700C0000084
:100500008BB180648BB9309B13C00E94FA01182F05
:100510008BB18F7B8BB92FE986E891E02150804029
:100520009040E1F700C000008BB181608BB907C03B
:1005300087EA91E60197F1F700C00000E4CF309B15
:1005400016C00E94FA019BB19E7F9BB920E0482F04
:10055000612FCE0101960E94A1019FE926E881E06A
:10056000915020408040E1F700C0000007C087EABA
:1005700091E60197F1F700C00000E1CF29960FB690
:10058000F894DEBF0FBECDBFDF91CF911F910F91C9
:100590000895019749F46F3F7F4F31F445E064E0DF
:1005A00080E091E00E9463000895CF93DF93CDB780
:1005B000DEB72E970FB6F894DEBF0FBECDBFCE01CB
:1005C00001960E94CC0180E091E00E9467000E94A9
:1005D000570280E091E00E9433012F8338874987DA
:1005E0005A876B877C878D879E87E22EF12CC32EDE
:1005F000D12C309B14C00091000110910101209179
:100600000201309103014091040150910501609174
:10061000060170910701809108010E945F0206B1F6
:10062000027010E01016110644F48D819E81892B12
:1006300021F4CE0101960E94FF011016110644F428
:100640008D819E81019721F4CE0101960E94D401F3
:1006500089819A81E816F90669F48B819C81C81614
:10066000D90641F48D819E81019721F4CE01019636
:100670000E94E40187EA91E60197F1F700C00000CB
:10068000A8CF6FEF7FEF81E090E00E94C90208954C
:10069000EE0FFF1F0590F491E02D0994F894FFCF21
:00000001FF
