S01700004763634170706C69636174696F6E312E737265635B
S11300000C9434000C9446000C9446000C94460066
S11300100C9446000C9446000C9446000C94460044
S11300200C9446000C9446000C9446000C94460034
S11300300C9446000C9446000C9446000C94460024
S11300400C9446000C9446000C9446000C94460014
S11300500C9446000C9446000C9446000C94460004
S11300600C9446000C94460011241FBECFEFD8E038
S1130070DEBFCDBF21E0A0E0B1E001C01D92A430FD
S1130080B207E1F70E942B010C9432010C9400009A
S113009027E027B938E338B986B1877090E09093A8
S11300A003018093020137B928B986B1887390E0BF
S11300B0909301018093000131E04091020150913D
S11300C003014430510509F030E021E0089709F0BC
S11300D020E0232311F080E885B991E0209100010C
S11300E0309101012031310509F090E081E0209147
S11300F00201309103012430310509F080E08923A5
S113010011F080EC85B991E020910001309101015A
S11301102032310509F090E081E020910201309114
S113012003012430310509F080E0892311F080EEC9
S113013085B991E020910001309101012830310509
S113014009F090E081E02091020130910301223016
S1130150310509F080E0892311F080EF85B991E041
S113016020910001309101012031310509F090E026
S113017081E020910201309103012230310509F020
S113018080E0892311F088EF85B991E02091000186
S1130190309101012032310509F090E081E0209195
S11301A00201309103012230310509F080E08923F6
S11301B011F08CEF85B991E020910001309101019B
S11301C02830310509F090E081E02091020130915E
S11301D003012130310509F080E0892311F08EEF0D
S11301E085B991E020910001309101012031310560
S11301F009F090E081E02091020130910301213067
S1130200310509F080E0892311F08FEF85B991E081
S113021020910001309101012032310509F090E074
S113022081E020910201309103012130310509F070
S113023080E0892321F08FEF85B980E88BB92FEF17
S113024080E792E0215080409040E1F700C0000038
S113025015B81BB808958FEF84B980E88AB90E9455
S10B02604800FDCFF894FFCF24
S9030000FC
