:100000000C9434000C943E000C943E000C943E0082
:100010000C943E000C943E000C943E000C943E0068
:100020000C943E000C943E000C943E000C943E0058
:100030000C943E000C943E000C943E000C943E0048
:100040000C943E000C943E000C943E000C943E0038
:100050000C943E000C943E000C943E000C943E0028
:100060000C943E000C943E0011241FBECFEFD8E04C
:10007000DEBFCDBF0E9455000C9413010C9400000C
:10008000FC0197E097B948E348B926B1277030E002
:10009000DB012D933C9347B998B926B1287330E022
:1000A0003183208380E090E00895CF93DF9300D0E8
:1000B00000D0CDB7DEB78FEF84B980E88AB9BE0132
:1000C0006F5F7F4FCE0103960E94400091E02B812D
:1000D0003C812830310509F090E081E029813A81A6
:1000E0002430310509F080E0892311F080E885B9DA
:1000F00091E02B813C812031310509F090E081E0D5
:1001000029813A812430310509F080E0892311F0FA
:1001100080EC85B991E02B813C812032310509F0DA
:1001200090E081E029813A812430310509F080E0B6
:10013000892311F080EE85B991E02B813C81283034
:10014000310509F090E081E029813A8122303105C2
:1001500009F080E0892311F080EF85B991E02B81CF
:100160003C812031310509F090E081E029813A811C
:100170002230310509F080E0892311F088EF85B93C
:1001800091E02B813C812032310509F090E081E043
:1001900029813A812230310509F080E0892311F06C
:1001A0008CEF85B991E02B813C812830310509F035
:1001B00090E081E029813A812130310509F080E029
:1001C000892311F08EEF85B991E02B813C8120319C
:1001D000310509F090E081E029813A812130310533
:1001E00009F080E0892311F08FEF85B991E02B8130
:1001F0003C812032310509F090E081E029813A818B
:100200002130310509F080E0892321F08FEF85B995
:1002100080E88BB987EA91E60197F1F700C000000A
:0A02200015B81BB84CCFF894FFCFBF
:00000001FF
