S01700004763634170706C69636174696F6E312E737265635B
S11300000C9434000C9446000C9446000C94460066
S11300100C9446000C9446000C9446000C94460044
S11300200C9446000C9446000C9446000C94460034
S11300300C9446000C9446000C9446000C94460024
S11300400C9446000C9446000C9446000C94460014
S11300500C9446000C9446000C9446000C94460004
S11300600C9446000C94460011241FBECFEFD8E038
S1130070DEBFCDBF21E0A0E0B1E001C01D92A430FD
S1130080B207E1F70E945D000C943B010C94000060
S1130090FC0197E097B948E348B926B1277030E0EE
S11300A0DB012D933C9347B998B926B1287330E00E
S11300B03183208380E090E008958FEF84B980E855
S11300C08AB962E071E080E091E00E94480091E02A
S11300D020910001309101012830310509F090E0B0
S11300E081E020910201309103012430310509F0AF
S11300F080E0892311F080E885B991E02091000126
S1130100309101012031310509F090E081E0209126
S11301100201309103012430310509F080E0892384
S113012011F080EC85B991E020910001309101013A
S11301302032310509F090E081E0209102013091F4
S113014003012430310509F080E0892311F080EEA9
S113015085B991E0209100013091010128303105E9
S113016009F090E081E020910201309103012230F6
S1130170310509F080E0892311F080EF85B991E021
S113018020910001309101012031310509F090E006
S113019081E020910201309103012230310509F000
S11301A080E0892311F088EF85B991E02091000166
S11301B0309101012032310509F090E081E0209175
S11301C00201309103012230310509F080E08923D6
S11301D011F08CEF85B991E020910001309101017B
S11301E02830310509F090E081E02091020130913E
S11301F003012130310509F080E0892311F08EEFED
S113020085B991E02091000130910101203131053F
S113021009F090E081E02091020130910301213046
S1130220310509F080E0892311F08FEF85B991E061
S113023020910001309101012032310509F090E054
S113024081E020910201309103012130310509F050
S113025080E0892321F08FEF85B980E88BB92FEFF7
S113026081EE94E0215080409040E1F700C000000E
S10D027015B81BB826CFF894FFCF91
S9030000FC
