S01400006D656E755F646973706C61792E7372656306
S11300000C9434000C9449000C9449000C9449005D
S11300100C9449000C9449000C9449000C94490038
S11300200C9449000C9449000C9449000C94490028
S11300300C9449000C9449000C9449000C94490018
S11300400C9449000C9449000C9449000C94490008
S11300500C9449000C9449000C9449000C944900F8
S11300600C9449000C94490011241FBECFEFD8E032
S1130070DEBFCDBF11E0A0E0B1E0E8E7F2E002C0EE
S113008005900D92A830B107D9F70E9418010C947D
S11300903A010C9400008BB180648BB900C08BB121
S11300A08F7B8BB90895CF93DF93D82F662321F0EC
S11300B08BB180618BB903C08BB18F7E8BB98BB14F
S11300C08F7D8BB98AB18F608AB9CBB1C07F8D2FF8
S11300D082958F708C2B8BB90E944B00DF70DC2BC8
S11300E0DBB90E944B00CF60CBB9DF91CF9108956B
S11300F0882321F08BB180618BB903C08BB18F7ED3
S11301008BB98BB180628BB98AB1807F8AB98BB18C
S113011080648BB900C099B19295907F8BB18F7B2D
S11301208BB900C08BB180648BB900C089B18F706A
S11301302BB12F7B2BB9892B089580E00E94780086
S11301408823DCF388E090E00197F1F780E00E94D7
S113015078000895CF93C82F0E949D0060E08C2FF3
S11301600E945300CF91089581E00E94AA0008954F
S1130170CF93C82F0E949D00CA3049F4803410F4F4
S113018080E401C080E080580E94AA0004C061E0BD
S11301908C2F0E945300CF910895CF93DF93FC01DD
S11301A003C00E94B800FE01EF01219680818111F5
S11301B0F8CFDF91CF9108951F93CF93DF93182F3A
S11301C08AB18F678AB980E09AEF0197F1F78BB112
S11301D082608BB98BB181608BB90E944B0080E047
S11301E09EE40197F1F70E944B00C0E0D1E0CE01FC
S11301F00197F1F70E944B00CE010197F1F78BB103
S11302008E7F8BB90E944B002197F1F788E20E9400
S1130210AA0088E00E94AA000E94B40086E00E941E
S1130220AA00812F0E94AA00DF91CF911F91089507
S11302308CE00E94DC0087E085B983ED90E30197B0
S1130240F1F700C0000083B1863031F083B185300E
S113025019F083B1833039F40E94B40080E091E056
S11302600E94CD00E8CF0E94B40083E091E00E9498
S10B0270CD00E1CFF894FFCFAB
S10B02784F4E004F4646000002
S9030000FC
