S01400006D656E755F646973706C61792E7372656306
S11300000C9434000C9451000C9451000C94510045
S11300100C9451000C9451000C9451000C94510018
S11300200C9451000C9451000C9451000C94510008
S11300300C9451000C9451000C9451000C945100F8
S11300400C9451000C9451000C9451000C945100E8
S11300500C9451000C9451000C9451000C945100D8
S11300600C9451000C94510011241FBECFEFD8E022
S1130070DEBFCDBF11E0A0E0B1E0EEE5F9E002C0E3
S113008005900D92A630B107D9F721E0A6E0B1E0C2
S113009001C01D92A431B207E1F70E9420010C9423
S11300A0AD040C9400008BB180648BB900C08BB19B
S11300B08F7B8BB90895CF93DF93D82F662321F0DC
S11300C08BB180618BB903C08BB18F7E8BB98BB13F
S11300D08F7D8BB98AB18F608AB9CBB1C07F8D2FE8
S11300E082958F708C2B8BB90E945300DF70DC2BB0
S11300F0DBB90E945300CF60CBB9DF91CF91089553
S1130100882321F08BB180618BB903C08BB18F7EC2
S11301108BB98BB180628BB98AB1807F8AB98BB17C
S113012080648BB900C099B19295907F8BB18F7B1D
S11301308BB900C08BB180648BB900C089B18F705A
S11301402BB12F7B2BB9892B089580E00E9480006E
S11301508823DCF388E090E00197F1F780E00E94C7
S113016080000895CF93C82F0E94A50060E08C2FD3
S11301700E945B00CF91089581E00E94B20008952F
S1130180CF93C82F0E94A500CA3049F4803410F4DC
S113019080E401C080E080580E94B20004C061E0A5
S11301A08C2F0E945B00CF910895CF93DF93FC01C5
S11301B003C00E94C000FE01EF01219680818111DD
S11301C0F8CFDF91CF9108951F93CF93DF93182F2A
S11301D08AB18F678AB980E09AEF0197F1F78BB102
S11301E082608BB98BB181608BB90E94530080E02F
S11301F09EE40197F1F70E945300C0E0D1E0CE01E4
S11302000197F1F70E945300CE010197F1F78BB1EA
S11302108E7F8BB90E9453002197F1F788E20E94E8
S1130220B20088E00E94B2000E94BC0086E00E94F6
S1130230B200812F0E94B200DF91CF911F910895E7
S11302408CE00E94E40080E091E00E94D50087E009
S113025085B983ED90E30197F1F700C00000809128
S1130260080190910901009749F523B1263031F531
S11302708091060190910701019690930701809364
S113028006010E94BC00809107018F9380910601B2
S11302908F9382E091E09F938F938AE091E09F9304
S11302A08F930E94C3018AE091E00E94D5000F90D1
S11302B00F900F900F900F900F9050C0009749F53A
S11302C023B1253031F58091060190910701019702
S11302D090930701809306010E94BC00809107015E
S11302E08F93809106018F9382E091E09F938F9387
S11302F08AE091E09F938F930E94C3018AE091E08A
S11303000E94D5000F900F900F900F900F900F90B8
S113031025C0892B19F583B1833001F510920701AB
S1130320109206010E94BC00809107018F93809176
S113033006018F9382E091E09F938F938AE091E08E
S11303409F938F930E94C3018AE091E00E94D5009D
S11303500F900F900F900F900F900F9083B18630F5
S113036031F083B1853019F083B1833039F481E001
S113037090E090930901809308016BCF10920901DA
S11303801092080166CFAEE0B0E0E9ECF1E00C9425
S113039084040D891E8986E08C831A8309838FEF78
S11303A09FE79E838D83AE01475E5F4F6F89788D93
S11303B0CE0101960E94E501EF81F885E00FF11F5F
S11303C010822E96E4E00C94A004ABE0B0E0EBEED7
S11303D0F1E00C9476046C017B018A01FC01178224
S11303E01682838181FFCCC1CE0101963C01F601C6
S11303F09381F70193FD859193FF81917F01882378
S113040009F4BAC1853239F493FD859193FF819142
S11304107F01853229F4B60190E00E94DC03E7CF26
S1130420912C212C312CFFE1F315D8F08B3279F08B
S113043038F4803279F08332A1F4232D20611DC079
S11304408D3261F0803369F4232D216016C0832D31
S11304508260382EE32DE4603E2E2AC0F32DF8602E
S11304601DC037FC2DC020ED280F2A3040F08E32FD
S1130470B9F436FC81C1232D2064322E19C036FE16
S113048006C08AE0989E200D1124922E11C0EAE045
S11304902E9E200D1124222EF32DF0623F2E08C033
S11304A08C3621F4832D8068382E02C0883641F4BE
S11304B0F70193FD859193FF81917F018111B3CF62
S11304C0982F9F7D9554933028F40C5F1F4F9FE322
S11304D099830DC0833631F0833771F0833509F089
S11304E059C021C0F801808189830E5F1F4F882481
S11304F08394912C530113C02801F2E04F0E511C38
S1130500F801A080B18036FE03C0692D70E002C0FE
S11305106FEF7FEFC5010E94D1034C018201F32DDF
S1130520FF773F2E16C0280122E0420E511CF8012D
S1130530A080B18036FE03C0692D70E002C06FEF69
S11305407FEFC5010E94C6034C01F32DF0683F2ED6
S1130550820133FC1BC0822D90E088169906B0F40A
S1130560B60180E290E00E94DC032A94F4CFF50106
S113057037FC859137FE81915F01B60190E00E94BE
S1130580DC0321102A9421E0821A91088114910439
S113059071F7E8C0843611F0893641F5F80137FE69
S11305A007C060817181828193810C5F1F4F08C0F5
S11305B060817181072E000C880B990B0E5F1F4F11
S11305C0F32DFF763F2E97FF09C090958095709587
S11305D061957F4F8F4F9F4FF0683F2E2AE030E0A8
S11305E0A3010E941804882E861845C0853731F46B
S11305F0232D2F7EB22E2AE030E025C0932D997F43
S1130600B92E8F36C1F018F4883579F0B5C080372B
S113061019F0883721F0B0C0E92FE061BE2EB4FE96
S11306200DC0FB2DF460BF2E09C034FE0AC0292F73
S11306302660B22E06C028E030E005C020E130E09C
S113064002C020E132E0F801B7FE07C06081718189
S1130650828193810C5F1F4F06C06081718180E0AD
S113066090E00E5F1F4FA3010E941804882E861885
S1130670FB2DFF773F2E36FE0DC0232D2E7FA22E9D
S1130680891458F434FE0BC032FC09C0832D8E7ECD
S1130690A82E05C0B82CA32C03C0B82C01C0B92CBB
S11306A0A4FE0FC0FE01E80DF11D8081803321F40A
S11306B09A2D997EA92E09C0A2FE06C0B394B394C4
S11306C004C08A2D867809F0B394A3FC11C0A0FE5F
S11306D006C0B21488F4280C922C9B180EC0B214D5
S11306E060F4B60180E290E00E94DC03B394F7CF9B
S11306F0B21418F42B1802C0982C212CA4FE10C09C
S1130700B60180E390E00E94DC03A2FE17C0A1FCC6
S113071003C088E790E002C088E590E0B6010CC011
S11307208A2D867859F0A1FE02C08BE201C080E2D6
S1130730A7FC8DE2B60190E00E94DC03891438F432
S1130740B60180E390E00E94DC039A94F7CF8A9488
S1130750F301E80DF11D8081B60190E00E94DC03F5
S11307608110F5CF222009F442CEB60180E290E058
S11307700E94DC032A94F6CFF6018681978102C099
S11307808FEF9FEF2B96E2E10C949204FC0105900D
S1130790615070400110D8F7809590958E0F9F1F7F
S11307A00895FC016150704001900110D8F78095C4
S11307B090958E0F9F1F08950F931F93CF93DF93F0
S11307C0FB01238121FD03C08FEF9FEF2CC022FF8B
S11307D016C046815781248135814217530744F45A
S11307E0A081B1819D012F5F3F4F318320838C9382
S11307F0268137812F5F3F4F3783268314C08B01B7
S1130800EC01FB010084F185E02D0995892BE1F6CB
S1130810D80116968D919C911797019617969C93E3
S11308208E931697CE01DF91CF911F910F9108956A
S1130830FA01AA27283051F1203181F1E8946F930D
S11308406E7F6E5F7F4F8F4F9F4FAF4FB1E03ED0B3
S1130850B4E03CD0670F781F891F9A1FA11D680F51
S1130860791F8A1F911DA11D6A0F711D811D911D84
S1130870A11D20D009F468943F912AE0269F1124F9
S11308803019305D3193DEF6CF010895462F47705D
S1130890405D4193B3E00FD0C9F7F6CF462F4F70B8
S11308A0405D4A3318F0495D31FD4052419302D016
S11308B0A9F7EACFB4E0A6959795879577956795BC
S11308C0BA95C9F700976105710508959B01AC01BC
S11308D00A2E06945795479537952795BA95C9F7E3
S11308E0620F731F841F951FA01D08952F923F92BE
S11308F04F925F926F927F928F929F92AF92BF922C
S1130900CF92DF92EF92FF920F931F93CF93DF93D7
S1130910CDB7DEB7CA1BDB0B0FB6F894DEBF0FBE34
S1130920CDBF09942A88398848885F846E847D8481
S11309308C849B84AA84B984C884DF80EE80FD8083
S11309400C811B81AA81B981CE0FD11D0FB6F894F9
S1110950DEBF0FBECDBFED010895F894FFCFBA
S109095E300025640000D6
S9030000FC
