S01400006D656E755F646973706C61792E7372656306
S11300000C9434000C9449000C9449000C9449005D
S11300100C9449000C9449000C9449000C94490038
S11300200C9449000C9449000C9449000C94490028
S11300300C9449000C9449000C9449000C94490018
S11300400C9449000C9449000C9449000C94490008
S11300500C9449000C9449000C9449000C944900F8
S11300600C9449000C94490011241FBECFEFD8E032
S1130070DEBFCDBF11E0A0E0B1E0E8E7F2E002C0EE
S113008005900D92AC30B107D9F70E9426010C946B
S11300903A010C9400008BB180648BB900C08BB121
S11300A08F7B8BB90895CF93DF93D82F662321F0EC
S11300B08BB180618BB903C08BB18F7E8BB98BB14F
S11300C08F7D8BB98AB18F608AB9CBB1C07F8D2FF8
S11300D082958F708C2B8BB90E944B00DF70DC2BC8
S11300E0DBB90E944B00CF60CBB9DF91CF9108956B
S11300F0882321F08BB180618BB903C08BB18F7ED3
S11301008BB98BB180628BB98AB1807F8AB98BB18C
S113011080648BB900C099B19295907F8BB18F7B2D
S11301208BB900C08BB180648BB900C089B18F706A
S11301302BB12F7B2BB9892B089580E00E94780086
S11301408823DCF388E090E00197F1F780E00E94D7
S113015078000895CF93C82F0E949D0060E08C2FF3
S11301600E945300CF910895611104C080580E94E9
S1130170AA00089580540E94AA00089581E00E9474
S1130180AA00089582E00E94AA000895CF93C82F80
S11301900E949D00CA3049F4803410F480E401C008
S11301A080E080580E94AA0004C061E08C2F0E9465
S11301B05300CF910895CF93DF93FC0103C00E94B5
S11301C0C600FE01EF01219680818111F8CFDF91F5
S11301D0CF9108951F93CF93DF93182F8AB18F6720
S11301E08AB980E09AEF0197F1F78BB182608BB9FD
S11301F08BB181608BB90E944B0080E09EE4019733
S1130200F1F70E944B00C0E0D1E0CE010197F1F775
S11302100E944B00CE010197F1F78BB18E7F8BB911
S11302200E944B002197F1F788E20E94AA0088E01F
S11302300E94AA000E94BE0086E00E94AA00812FAC
S11302400E94AA00DF91CF911F9108958EE00E9431
S1130250EA000E94BE000E94C20080E091E00E9479
S1130260DB0061E080E00E94B40086E091E00E943F
S10B0270DB00FFCFF894FFCF7F
S10F02784C696E6531004C696E65320003
S9030000FC
