:100000000C9434000C9451000C9451000C94510049
:100010000C9451000C9451000C9451000C9451001C
:100020000C9451000C9451000C9451000C9451000C
:100030000C9451000C9451000C9451000C945100FC
:100040000C9451000C9451000C9451000C945100EC
:100050000C9451000C9451000C9451000C945100DC
:100060000C9451000C94510011241FBECFEFD8E026
:10007000DEBFCDBF11E0A0E0B1E0EEE1F9E002C0EB
:1000800005900D92A830B107D9F721E0A8E0B1E0C2
:1000900001C01D92A631B207E1F70E94FA000C944C
:1000A0008D040C94000095B19F70282F207F922B17
:1000B00095B995B19E7F95B995B1926095B932E0A9
:1000C0003A95F1F700C095B19D7F95B9EFE8F1E061
:1000D0003197F1F700C0000025B1F0E18F9FC0011A
:1000E0001124922F9F70892B85B985B1826085B9C3
:1000F00032E03A95F1F700C085B18D7F85B98FE97F
:100100009FE00197F1F700C00000089595B19F703E
:10011000282F207F922B95B995B1916095B995B113
:10012000926095B932E03A95F1F700C095B19D7FA4
:1001300095B9EFE8F1E03197F1F700C0000025B183
:10014000F0E18F9FC0011124922F9F70892B85B9F8
:1001500085B1826085B932E03A95F1F700C085B18A
:100160008D7F85B98FE99FE00197F1F700C000000E
:1001700008958FEF84B98FE39CE90197F1F700C0F0
:10018000000082E00E94530088E20E9453008CE04D
:100190000E94530086E00E94530081E00E945300B9
:1001A0008FE99FE00197F1F700C0000008950F93D9
:1001B0001F93CF93DF938C01C0E0D0E003C00E9477
:1001C00086002196F801EC0FFD1F80818111F7CF89
:1001D000DF91CF911F910F91089581E00E9453000C
:1001E0008FE99FE00197F1F700C0000080E80E94CE
:1001F000530008950E94B90080E091E00E94D7006A
:1002000087E088B92FE788E391E021508040904053
:10021000E1F700C0000080910A0190910B01009766
:1002200049F526B1263431F58091080190910901F4
:10023000019690930901809308010E94ED0080913E
:1002400009018F93809108018F9382E091E09F9341
:100250008F938CE091E09F938F930E94A3018CE099
:1002600091E00E94D7000F900F900F900F900F9089
:100270000F9054C0009769F526B1253451F585E0FB
:1002800091E00E94D70080910801909109010197A7
:1002900090930901809308010E94ED00809109016B
:1002A0008F93809108018F9382E091E09F938F93C9
:1002B0008CE091E09F938F930E94A3018CE091E0EA
:1002C0000E94D7000F900F900F900F900F900F90FB
:1002D00025C0892B19F586B1833401F510920901E7
:1002E000109208010E94ED00809109018F93809186
:1002F00008018F9382E091E09F938F938CE091E0CF
:100300009F938F930E94A3018CE091E00E94D700FD
:100310000F900F900F900F900F900F9086B1863432
:1003200031F086B1853419F086B1833439F481E037
:1003300090E090930B0180930A0164CF10920B011F
:1003400010920A015FCFAEE0B0E0E9EAF1E00C9470
:1003500064040D891E8986E08C831A8309838FEFDC
:100360009FE79E838D83AE01475E5F4F6F89788DD7
:10037000CE0101960E94C501EF81F885E00FF11FC3
:1003800010822E96E4E00C948004ABE0B0E0EBEC3D
:10039000F1E00C9456046C017B018A01FC01178288
:1003A0001682838181FFCCC1CE0101963C01F6010A
:1003B0009381F70193FD859193FF81917F018823BC
:1003C00009F4BAC1853239F493FD859193FF819187
:1003D0007F01853229F4B60190E00E94BC03E7CF8B
:1003E000912C212C312CFFE1F315D8F08B3279F0D0
:1003F00038F4803279F08332A1F4232D20611DC0BE
:100400008D3261F0803369F4232D216016C0832D75
:100410008260382EE32DE4603E2E2AC0F32DF86072
:100420001DC037FC2DC020ED280F2A3040F08E3241
:10043000B9F436FC81C1232D2064322E19C036FE5A
:1004400006C08AE0989E200D1124922E11C0EAE089
:100450002E9E200D1124222EF32DF0623F2E08C077
:100460008C3621F4832D8068382E02C0883641F402
:10047000F70193FD859193FF81917F018111B3CFA6
:10048000982F9F7D9554933028F40C5F1F4F9FE366
:1004900099830DC0833631F0833771F0833509F0CD
:1004A00059C021C0F801808189830E5F1F4F8824C5
:1004B0008394912C530113C02801F2E04F0E511C7C
:1004C000F801A080B18036FE03C0692D70E002C043
:1004D0006FEF7FEFC5010E94B1034C018201F32D44
:1004E000FF773F2E16C0280122E0420E511CF80172
:1004F000A080B18036FE03C0692D70E002C06FEFAE
:100500007FEFC5010E94A6034C01F32DF0683F2E3A
:10051000820133FC1BC0822D90E088169906B0F44E
:10052000B60180E290E00E94BC032A94F4CFF5016A
:1005300037FC859137FE81915F01B60190E00E9402
:10054000BC0321102A9421E0821A9108811491049D
:1005500071F7E8C0843611F0893641F5F80137FEAD
:1005600007C060817181828193810C5F1F4F08C039
:1005700060817181072E000C880B990B0E5F1F4F55
:10058000F32DFF763F2E97FF09C0909580957095CB
:1005900061957F4F8F4F9F4FF0683F2E2AE030E0EC
:1005A000A3010E94F803882E861845C0853731F4D0
:1005B000232D2F7EB22E2AE030E025C0932D997F87
:1005C000B92E8F36C1F018F4883579F0B5C0803770
:1005D00019F0883721F0B0C0E92FE061BE2EB4FEDB
:1005E0000DC0FB2DF460BF2E09C034FE0AC0292FB8
:1005F0002660B22E06C028E030E005C020E130E0E1
:1006000002C020E132E0F801B7FE07C060817181CD
:10061000828193810C5F1F4F06C06081718180E0F1
:1006200090E00E5F1F4FA3010E94F803882E8618EA
:10063000FB2DFF773F2E36FE0DC0232D2E7FA22EE1
:10064000891458F434FE0BC032FC09C0832D8E7E11
:10065000A82E05C0B82CA32C03C0B82C01C0B92CFF
:10066000A4FE0FC0FE01E80DF11D8081803321F44E
:100670009A2D997EA92E09C0A2FE06C0B394B39408
:1006800004C08A2D867809F0B394A3FC11C0A0FEA3
:1006900006C0B21488F4280C922C9B180EC0B21419
:1006A00060F4B60180E290E00E94BC03B394F7CFFF
:1006B000B21418F42B1802C0982C212CA4FE10C0E0
:1006C000B60180E390E00E94BC03A2FE17C0A1FC2B
:1006D00003C088E790E002C088E590E0B6010CC056
:1006E0008A2D867859F0A1FE02C08BE201C080E21B
:1006F000A7FC8DE2B60190E00E94BC03891438F497
:10070000B60180E390E00E94BC039A94F7CF8A94EC
:10071000F301E80DF11D8081B60190E00E94BC0359
:100720008110F5CF222009F442CEB60180E290E09C
:100730000E94BC032A94F6CFF6018681978102C0FD
:100740008FEF9FEF2B96E2E10C947204FC01059071
:10075000615070400110D8F7809590958E0F9F1FC3
:100760000895FC016150704001900110D8F7809508
:1007700090958E0F9F1F08950F931F93CF93DF9334
:10078000FB01238121FD03C08FEF9FEF2CC022FFCF
:1007900016C046815781248135814217530744F49E
:1007A000A081B1819D012F5F3F4F318320838C93C6
:1007B000268137812F5F3F4F3783268314C08B01FB
:1007C000EC01FB010084F185E02D0995892BE1F610
:1007D000D80116968D919C911797019617969C9328
:1007E0008E931697CE01DF91CF911F910F910895AF
:1007F000FA01AA27283051F1203181F1E8946F9352
:100800006E7F6E5F7F4F8F4F9F4FAF4FB1E03ED0F7
:10081000B4E03CD0670F781F891F9A1FA11D680F95
:10082000791F8A1F911DA11D6A0F711D811D911DC8
:10083000A11D20D009F468943F912AE0269F11243D
:100840003019305D3193DEF6CF010895462F4770A1
:10085000405D4193B3E00FD0C9F7F6CF462F4F70FC
:10086000405D4A3318F0495D31FD4052419302D05A
:10087000A9F7EACFB4E0A695979587957795679500
:10088000BA95C9F700976105710508959B01AC0100
:100890000A2E06945795479537952795BA95C9F727
:1008A000620F731F841F951FA01D08952F923F9202
:1008B0004F925F926F927F928F929F92AF92BF9270
:1008C000CF92DF92EF92FF920F931F93CF93DF931C
:1008D000CDB7DEB7CA1BDB0B0FB6F894DEBF0FBE79
:1008E000CDBF09942A88398848885F846E847D84C6
:1008F0008C849B84AA84B984C884DF80EE80FD80C8
:100900000C811B81AA81B981CE0FD11D0FB6F8943D
:0E091000DEBF0FBECDBFED010895F894FFCFFE
:08091E003000256400620000B6
:00000001FF
